{
  "contractName": "FtTokenSale",
  "abi": [
    {
      "constant": true,
      "inputs": [],
      "name": "tokenContract",
      "outputs": [
        {
          "name": "",
          "type": "address"
        }
      ],
      "payable": false,
      "stateMutability": "view",
      "type": "function"
    },
    {
      "inputs": [
        {
          "name": "_tokenContract",
          "type": "address"
        }
      ],
      "payable": false,
      "stateMutability": "nonpayable",
      "type": "constructor"
    }
  ],
  "bytecode": "0x608060405234801561001057600080fd5b506040516020806101bb8339810180604052602081101561003057600080fd5b8101908080519060200190929190505050336000806101000a81548173ffffffffffffffffffffffffffffffffffffffff021916908373ffffffffffffffffffffffffffffffffffffffff16021790555080600160006101000a81548173ffffffffffffffffffffffffffffffffffffffff021916908373ffffffffffffffffffffffffffffffffffffffff1602179055505060ea806100d16000396000f3fe608060405260043610603f576000357c0100000000000000000000000000000000000000000000000000000000900463ffffffff16806355a373d6146044575b600080fd5b348015604f57600080fd5b5060566098565b604051808273ffffffffffffffffffffffffffffffffffffffff1673ffffffffffffffffffffffffffffffffffffffff16815260200191505060405180910390f35b600160009054906101000a900473ffffffffffffffffffffffffffffffffffffffff168156fea165627a7a72305820f60328e65fa3f26f1fed3d36fb8602c3c4c7a896da7cc15628094e3cf9d26e7e0029",
  "source": "pragma solidity ^0.5.0;\r\n\r\n\r\nimport \"./FtToken.sol\";\r\n\r\n/**\r\n * The contractName contract does this and that...\r\n */\r\ncontract FtTokenSale {\r\n\taddress admin;\r\n\tFtToken public tokenContract; \r\n\r\n\tconstructor(FtToken _tokenContract) public {\r\n\t\t// Assign an Admin\r\n\t\tadmin = msg.sender;\r\n\t\t\r\n\t\t// Assign Token Contract\r\n\t\ttokenContract = _tokenContract; \r\n\t\t// Token Price\r\n\t}\r\n}\r\n",
  "sourcePath": "E:/PROJECTS/blockchain/ft_token_sale/contracts/FtTokenSale.sol",
  "compiler": {
    "name": "solc",
    "version": "0.5.0+commit.1d4f565a.Emscripten.clang"
  },
  "schemaVersion": "3.0.1",
  "updatedAt": "2020-01-25T15:38:59.935Z",
  "devdoc": {
    "methods": {}
  },
  "userdoc": {
    "methods": {},
    "notice": "The contractName contract does this and that...\r"
  }
}